:100000000C9434000C9449000C9449000C94490061
:100010000C9449000C9449000C9449000C9449003C
:100020000C9449000C9449000C9449000C9449002C
:100030000C9449000C9449000C9449000C9449001C
:100040000C9449000C9449000C9449000C9449000C
:100050000C9449000C9449000C9449000C944900FC
:100060000C9449000C94490011241FBECFEFD8E036
:10007000DEBFCDBF11E0A0E0B1E0EEE9F2E002C0EA
:1000800005900D92A630B107D9F70E943F010C945C
:100090004D010C9400008BB180618BB985E08A958D
:1000A000F1F700008BB18F7E8BB90895CF93DF936A
:1000B000D82F662321F08BB184608BB903C08BB13C
:1000C0008B7F8BB98BB1877F8BB984B18F6084B9FB
:1000D000C5B1C07F8D2F82958F708C2B85B90E9402
:1000E0004B00DF70DC2BD5B90E944B00CF60C5B947
:1000F000DF91CF910895882321F08BB184608BB973
:1001000003C08BB18B7F8BB98BB188608BB984B105
:10011000807F84B98BB180618BB985E08A95F1F7D6
:10012000000093B19295907F8BB18F7E8BB985E063
:100130008A95F1F700008BB180618BB985E08A95D3
:10014000F1F7000083B18F702BB12F7E2BB9892B73
:10015000089580E00E947B008823DCF385E18A9586
:10016000F1F7000080E00E947B000895CF93C82F34
:100170000E94A90060E08C2F0E945600CF91089544
:10018000611104C080580E94B600089580540E94F6
:10019000B600089581E00E94B6000895CF93C82F5D
:1001A0000E94A900CA3049F4803410F480E401C0F0
:1001B00080E080580E94B60004C061E08C2F0E944D
:1001C0005600CF910895CF93DF93FC0103C00E94A6
:1001D000CE00FE01EF01219680818111F8CFDF91E1
:1001E000CF910895CF93C82F84B18F6084B98AB11D
:1001F00084608AB98AB188608AB98AB180618AB913
:100200008FEF99EF0197F1F700C0000085B1826090
:1002100085B985B1816085B90E944B008FE19EE46C
:100220000197F1F700C000000E944B008FEF90E0B3
:100230000197F1F700C000000E944B008FEF90E0A3
:100240000197F1F700C0000085B18E7F85B90E944B
:100250004B008FEF90E00197F1F700C0000088E2BB
:100260000E94B60088E00E94B6000E94CA0086E0A4
:100270000E94B6008C2F0E94B600CF9108958CE0AA
:100280000E94F2000E94CA0060E080E00E94C0006C
:0E02900080E091E00E94E300FFCFF894FFCFE2
:06029E00617364310000F1
:00000001FF
